{
  "_format": "hh-sol-artifact-1",
  "contractName": "Election",
  "sourceName": "contracts/Election.sol",
  "abi": [
    {
      "inputs": [],
      "stateMutability": "nonpayable",
      "type": "constructor"
    },
    {
      "anonymous": false,
      "inputs": [
        {
          "indexed": true,
          "internalType": "string",
          "name": "_name",
          "type": "string"
        }
      ],
      "name": "addedCandidateEvent",
      "type": "event"
    },
    {
      "anonymous": false,
      "inputs": [
        {
          "indexed": true,
          "internalType": "uint256",
          "name": "_candidateId",
          "type": "uint256"
        }
      ],
      "name": "votedEvent",
      "type": "event"
    },
    {
      "inputs": [
        {
          "internalType": "uint256",
          "name": "",
          "type": "uint256"
        }
      ],
      "name": "Candidates",
      "outputs": [
        {
          "internalType": "uint256",
          "name": "id",
          "type": "uint256"
        },
        {
          "internalType": "string",
          "name": "name",
          "type": "string"
        },
        {
          "internalType": "uint256",
          "name": "voteCount",
          "type": "uint256"
        }
      ],
      "stateMutability": "view",
      "type": "function"
    },
    {
      "inputs": [
        {
          "internalType": "address",
          "name": "",
          "type": "address"
        }
      ],
      "name": "Voters",
      "outputs": [
        {
          "internalType": "bool",
          "name": "",
          "type": "bool"
        }
      ],
      "stateMutability": "view",
      "type": "function"
    },
    {
      "inputs": [
        {
          "internalType": "string",
          "name": "_name",
          "type": "string"
        }
      ],
      "name": "addCandidate",
      "outputs": [],
      "stateMutability": "nonpayable",
      "type": "function"
    },
    {
      "inputs": [],
      "name": "candidatesCount",
      "outputs": [
        {
          "internalType": "uint256",
          "name": "",
          "type": "uint256"
        }
      ],
      "stateMutability": "view",
      "type": "function"
    },
    {
      "inputs": [
        {
          "internalType": "uint256",
          "name": "_candidateId",
          "type": "uint256"
        }
      ],
      "name": "castVote",
      "outputs": [],
      "stateMutability": "nonpayable",
      "type": "function"
    }
  ],
  "bytecode": "0x60806040523480156200001157600080fd5b50620000586040518060400160405280600581526020017f41686d6574000000000000000000000000000000000000000000000000000000815250620000ea60201b60201c565b6200009e6040518060400160405280600681526020017f4d65686d65740000000000000000000000000000000000000000000000000000815250620000ea60201b60201c565b620000e46040518060400160405280600481526020017f56656c6900000000000000000000000000000000000000000000000000000000815250620000ea60201b60201c565b620003ea565b604051806060016040528060005481526020018281526020016000815250600160008054815260200190815260200160002060008201518160000155602082015181600101908051906020019062000144929190620001b2565b506040820151816002015590505060008081548092919062000166906200033e565b9190505550806040516200017b919062000299565b60405180910390207f61453288140b959a1de49cb96fc684431434ea7f5b903660652936ff7dc1ba0160405160405180910390a250565b828054620001c09062000308565b90600052602060002090601f016020900481019282620001e4576000855562000230565b82601f10620001ff57805160ff191683800117855562000230565b8280016001018555821562000230579182015b828111156200022f57825182559160200191906001019062000212565b5b5090506200023f919062000243565b5090565b5b808211156200025e57600081600090555060010162000244565b5090565b60006200026f82620002b2565b6200027b8185620002bd565b93506200028d818560208601620002d2565b80840191505092915050565b6000620002a7828462000262565b915081905092915050565b600081519050919050565b600081905092915050565b6000819050919050565b60005b83811015620002f2578082015181840152602081019050620002d5565b8381111562000302576000848401525b50505050565b600060028204905060018216806200032157607f821691505b60208210811415620003385762000337620003bb565b5b50919050565b60006200034b82620002c8565b91507fffffffffffffffffffffffffffffffffffffffffffffffffffffffffffffffff8214156200038157620003806200038c565b5b600182019050919050565b7f4e487b7100000000000000000000000000000000000000000000000000000000600052601160045260246000fd5b7f4e487b7100000000000000000000000000000000000000000000000000000000600052602260045260246000fd5b61096580620003fa6000396000f3fe608060405234801561001057600080fd5b50600436106100575760003560e01c8063290e92121461005c5780632d35a8a21461008e5780633eb76b9c146100ac578063462e91ec146100c8578063fdedaa8a146100e4575b600080fd5b61007660048036038101906100719190610574565b610114565b60405161008593929190610672565b60405180910390f35b6100966101c6565b6040516100a39190610657565b60405180910390f35b6100c660048036038101906100c19190610574565b6101cc565b005b6100e260048036038101906100dd9190610533565b6102f3565b005b6100fe60048036038101906100f9919061050a565b6103b5565b60405161010b919061063c565b60405180910390f35b600160205280600052604060002060009150905080600001549080600101805461013d906107b7565b80601f0160208091040260200160405190810160405280929190818152602001828054610169906107b7565b80156101b65780601f1061018b576101008083540402835291602001916101b6565b820191906000526020600020905b81548152906001019060200180831161019957829003601f168201915b5050505050908060020154905083565b60005481565b600260003373ffffffffffffffffffffffffffffffffffffffff1673ffffffffffffffffffffffffffffffffffffffff16815260200190815260200160002060009054906101000a900460ff161561022357600080fd5b6000811015801561023657506000548111155b61023f57600080fd5b6001600082815260200190815260200160002060020160008154809291906102669061081a565b91905055506001600260003373ffffffffffffffffffffffffffffffffffffffff1673ffffffffffffffffffffffffffffffffffffffff16815260200190815260200160002060006101000a81548160ff021916908315150217905550807ffff3c900d938d21d0990d786e819f29b8d05c1ef587b462b939609625b684b1660405160405180910390a250565b604051806060016040528060005481526020018281526020016000815250600160008054815260200190815260200160002060008201518160000155602082015181600101908051906020019061034b9291906103d5565b506040820151816002015590505060008081548092919061036b9061081a565b91905055508060405161037e9190610625565b60405180910390207f61453288140b959a1de49cb96fc684431434ea7f5b903660652936ff7dc1ba0160405160405180910390a250565b60026020528060005260406000206000915054906101000a900460ff1681565b8280546103e1906107b7565b90600052602060002090601f016020900481019282610403576000855561044a565b82601f1061041c57805160ff191683800117855561044a565b8280016001018555821561044a579182015b8281111561044957825182559160200191906001019061042e565b5b509050610457919061045b565b5090565b5b8082111561047457600081600090555060010161045c565b5090565b600061048b610486846106d5565b6106b0565b9050828152602081018484840111156104a357600080fd5b6104ae848285610775565b509392505050565b6000813590506104c581610901565b92915050565b600082601f8301126104dc57600080fd5b81356104ec848260208601610478565b91505092915050565b60008135905061050481610918565b92915050565b60006020828403121561051c57600080fd5b600061052a848285016104b6565b91505092915050565b60006020828403121561054557600080fd5b600082013567ffffffffffffffff81111561055f57600080fd5b61056b848285016104cb565b91505092915050565b60006020828403121561058657600080fd5b6000610594848285016104f5565b91505092915050565b6105a68161073f565b82525050565b60006105b782610706565b6105c18185610711565b93506105d1818560208601610784565b6105da816108f0565b840191505092915050565b60006105f082610706565b6105fa8185610722565b935061060a818560208601610784565b80840191505092915050565b61061f8161076b565b82525050565b600061063182846105e5565b915081905092915050565b6000602082019050610651600083018461059d565b92915050565b600060208201905061066c6000830184610616565b92915050565b60006060820190506106876000830186610616565b818103602083015261069981856105ac565b90506106a86040830184610616565b949350505050565b60006106ba6106cb565b90506106c682826107e9565b919050565b6000604051905090565b600067ffffffffffffffff8211156106f0576106ef6108c1565b5b6106f9826108f0565b9050602081019050919050565b600081519050919050565b600082825260208201905092915050565b600081905092915050565b60006107388261074b565b9050919050565b60008115159050919050565b600073ffffffffffffffffffffffffffffffffffffffff82169050919050565b6000819050919050565b82818337600083830152505050565b60005b838110156107a2578082015181840152602081019050610787565b838111156107b1576000848401525b50505050565b600060028204905060018216806107cf57607f821691505b602082108114156107e3576107e2610892565b5b50919050565b6107f2826108f0565b810181811067ffffffffffffffff82111715610811576108106108c1565b5b80604052505050565b60006108258261076b565b91507fffffffffffffffffffffffffffffffffffffffffffffffffffffffffffffffff82141561085857610857610863565b5b600182019050919050565b7f4e487b7100000000000000000000000000000000000000000000000000000000600052601160045260246000fd5b7f4e487b7100000000000000000000000000000000000000000000000000000000600052602260045260246000fd5b7f4e487b7100000000000000000000000000000000000000000000000000000000600052604160045260246000fd5b6000601f19601f8301169050919050565b61090a8161072d565b811461091557600080fd5b50565b6109218161076b565b811461092c57600080fd5b5056fea26469706673582212200cb878c11675fc63ef0e1915b1d1189a8638cd4b759f0c85c959519eb060e52964736f6c63430008040033",
  "linkReferences": {},
  "deployedLinkReferences": {}
}